:020000040800F2
:1000000000500020A9020008450200084D02000827
:10001000550200085D0200086502000800000000AB
:100020000000000000000000000000006D02000859
:100030007902000800000000850200089102000813
:10004000F1020008F1020008F1020008F1020008C4
:10005000F1020008F1020008F1020008F1020008B4
:10006000F1020008F1020008F1020008F1020008A4
:10007000F1020008F1020008F1020008F102000894
:10008000F1020008F1020008F1020008F102000884
:10009000F1020008F1020008F1020008F102000874
:1000A000F1020008F1020008F1020008F102000864
:1000B000F1020008F1020008F1020008F102000854
:1000C000F1020008F1020008F1020008F102000844
:1000D000F1020008F1020008F1020008F102000834
:1000E000F1020008F1020008F1020008000000001F
:1000F0000000000000000000000000000000000000
:0C01000000000000000000005FF808F1A3
:10010C0010B5054C237833B9044B13B10448AFF345
:10011C0000800123237010BD0400002000000000AB
:10012C006003000808B5034B1BB103490348AFF348
:10013C00008008BD000000000800002060030008DB
:10014C0080B500AF304B1B682F4A43F480331360EB
:10015C0000BF2D4B1B6803F40033002BF9D02B4B45
:10016C001B682A4A43F004031360284B1B68274A78
:10017C0043F010031360244B5B68234A43F4803331
:10018C005360214B5B68204A43F4E01353601E4BD1
:10019C005B681D4A43F4806353601B4B1B681A4A0F
:1001AC0043F08073136000BF174B1B6803F00073A0
:1001BC00002BF9D0144B5B68134A43F002035360D5
:1001CC0000BF114B5B6803F00C03082BF9D10E4BED
:1001DC009B690D4A43F0100393610D4B5B680C4A0D
:1001EC0023F4700353600A4B5B68094A43F4001311
:1001FC005360074BDB68064A83F40053D360054811
:10020C0000F00AF800BFF4E70010024000200240A2
:10021C00001001408096980080B483B000AF7860E5
:10022C0000BF7B685A1E7A60002BFAD100BF00BF5A
:10023C000C37BD4680BC704780B400AF00BFFDE7F3
:10024C0080B400AF00BFFDE780B400AF00BFFDE796
:10025C0080B400AF00BFFDE780B400AF00BFFDE786
:10026C0080B400AF00BFBD4680BC704780B400AF07
:10027C0000BFBD4680BC704780B400AF00BFBD4618
:10028C0080BC704780B500AF00F02EF800BF80BD79
:10029C0080B400AF00BFBD4680BC7047FFF7F8FFCD
:1002AC000B480C490C4A002302E0D458C4500433C8
:1002BC00C4188C42F9D3094A094C002301E013609D
:1002CC000432A242FBD300F021F8FFF739FF70474C
:1002DC00000000200400002080030008040000201F
:1002EC0024000020FEE7000080B400AF054B1B7813
:1002FC001A46054B1B681344034A136000BFBD46E6
:10030C0080BC7047000000202000002070B5002643
:10031C000C4D0D4C641BA410A64209D100F01AF828
:10032C0000260A4D0A4C641BA410A64205D170BDD0
:10033C0055F8043B98470136EEE755F8043B9847CF
:10034C000136F2E778030008780300087803000808
:10035C007C030008F8B500BFF8BC08BC9E4670478B
:0C036C00F8B500BFF8BC08BC9E46704706
:040378003101000847
:04037C000D01000867
:040380000100000078
:04000005080002A944
:00000001FF
